:020000040800F2
:100000008809002045010008532300088D210008BD
:1000100051230008E7080008B1360008000000007E
:10002000000000000000000000000000012B00089C
:100030003D11000800000000B12900083D33000810
:100040005F0100085F0100085F0100085F01000810
:100050005F0100085F0100085F0100085F01000800
:100060005F0100085F0100085F0100085F010008F0
:100070005F0100085F0100085F0100085F010008E0
:100080005F0100085F0100085F0100085F010008D0
:100090005F0100085F0100085F0100085F010008C0
:1000A0005F0100085F0100085F0100085F010008B0
:1000B0009D3300085F0100085F0100085F01000830
:1000C0005F0100085F0100085F0100085F01000890
:1000D0005F0100085F010008193500085F01000892
:1000E0005F0100085F0100085F0100085F01000870
:1000F0005F0100085F0100085F0100085F01000860
:100100005F0100085F0100085F0100085F0100084F
:100110005F0100085F0100085F0100085F0100083F
:100120005F0100085F0100085F0100085F0100082F
:10013000DFF80CD000F0FCF800480047793D0008DB
:10014000880900200648804706480047FEE7FEE78A
:10015000FEE7FEE7FEE7FEE7FEE7FEE7FEE7FEE777
:100160004D3300083101000840EA01039B0703D02A
:1001700009E008C9121F08C0042AFAD203E011F8E6
:10018000013B00F8013B521EF9D2704701460020A6
:1001900000E0401C0A5C002AFBD1704730B50446E1
:1001A0000020034600E05B1C934203D2E05CCD5C80
:1001B000401BF8D030BD2DE9F0470F4691468046F0
:1001C0000446002614F8015B2DB100F05FF80068CA
:1001D000405DC007F6D12B2D02D02D2D18D0641E06
:1001E0004A463946204600F055F827B13968A14201
:1001F00001D1C7F8008071054FF002040BD54042D1
:10020000002803DD03F07AFA0460A007BDE8F08758
:1002100046F48066E4E70028F8DA03F06FFA046039
:100220006FF00040F2E72DE9F05F054600209246AE
:100230009B4688460646814640241DE028464146A6
:100240004746224600F095F8B0EB0A0052465B465E
:1002500071EB0B0110D310461946224600F07AF8D4
:100260002D1A67EB01084F4622460120002100F0BD
:1002700071F817EB00094E41201EA4F10104DDDCEA
:10028000484631462A464346BDE8F09F004870473D
:10029000D03F00082DE9F05F824604460078002731
:1002A000641C8B461546B946302801D09DB113E039
:1002B00014F8010B0127782803D0582801D045B144
:1002C0000AE00DB1102D07D10027102514F8010BFD
:1002D00002E0082500E00A250026B0460EE005FBF6
:1002E000080005FB06F1012701EB10461FFA80F814
:1002F000B6F5803F00D3B94614F8010B294600F04B
:1003000048F80028EBDABBF1000F04D0641E07B9EF
:100310005446CBF80040B9F1000F06D003F0EEF9D7
:1003200002210160C81EBDE8F09F48EA0640FAE7D6
:10033000064C074D06E0E06840F0010394E8070032
:1003400098471034AC42F6D3FFF7F6FED43F0008CE
:10035000F43F0008202A04DB203A00FA02F10020D2
:1003600070479140C2F1200320FA03F319439040F3
:100370007047202A04DB203A21FA02F0002170475E
:1003800021FA02F3D040C2F12002914008431946FD
:1003900070473A2800D2303820F02002412A01D399
:1003A000A2F137004FF0FF32884200D202461046D9
:1003B00070470029816802D041F0010101E021F07D
:1003C0000101816070470029816802D041F4807189
:1003D00001E021F480718160704701460020896846
:1003E000490700D5012070470146002089680907A8
:1003F00000D501207047000030B542680E4B0C79E3
:100400001A400B6842EA04221343436083680B4A94
:100410004D791340D1E9024243EA450322431A438E
:100420008260C26A097C22F47002491EC9B242EAA3
:100430000151C16230BD0000FFFEF0FFFDF7F1FF8A
:1004400070B5072509290AD9C468A1F10A0606EB87
:100450004606B540AC43B3401C43C46007E00469A2
:1004600001EB4106B540AC43B3401C4304611F237C
:10047000072A09D2446B521E02EB820293409C432E
:1004800091400C43446370BD0D2A09D2046BD21F06
:1004900002EB820293409C4391400C43046370BD85
:1004A000C46A0D3A02EB820293409C4391400C4394
:1004B000C46270BD816841F0080181607047002905
:1004C000816802D041F4A00101E021F4A001816023
:1004D0007047816841F004018160704770B590B049
:1004E0004FF4804002F066FA0121084602F06CFAEF
:1004F0000121480202F080FA2D4E304600F060FDE6
:100500002C4800902C4801A90024022531C18020EC
:10051000CDE904404000069080000790202008901C
:100520000002CDE909046946304600F0BFFD012113
:10053000304600F039FD01208DF830008DF8310093
:100540000B944FF46020CDE90D041A4C8DF83C500B
:100550004C3C0BA92046FFF74FFF072301220A213D
:100560002046FFF76DFF072302220B212046FFF7ED
:1005700067FF01212046FFF726FF01212046FFF7F4
:1005800018FF2046FFF796FF2046FFF72DFF0028B3
:10059000FAD12046FFF79DFF2046FFF71EFF0028F7
:1005A000FAD101212046FFF78AFF10B070BD00008C
:1005B000080002404C2401401800002010B586B00D
:1005C0000121042002F018FA0121880302F014FA34
:1005D0004FF4C060ADF8100018208DF81300032010
:1005E0008DF8120004A90E4800F09EFE4FF4E13091
:1005F00000900020ADF80400ADF80600ADF808004A
:10060000ADF80C000C20074CADF80A0069462046F6
:1006100002F0ECFF0121204602F0A0FF06B010BD61
:10062000000801400038014081B2014803F03CB8A5
:100630000038014010B58021034802F099FF08B14D
:10064000002010BD012010BD00380140F8B5032581
:100650008DF802500121042002F0CEF9012108207A
:1006600002F0CAF90121102002F0C6F90121084662
:1006700002F0C2F901212E4800F0A8FE0120ADF8D9
:1006800000002C4E102401468DF80340304600F047
:10069000C9FE6946304600F047FE3020ADF8000044
:1006A00001468DF80340304600F0BEFE69463046F4
:1006B00000F03AFEE102ADF8001014208DF80300BE
:1006C000304600F0B1FE6946304600F02DFEF020C5
:1006D000ADF80000184E01468DF80340304600F09A
:1006E000A3FE6946304600F01FFE4FF47041ADF89E
:1006F00000108DF80340304600F096FE6946304603
:1007000000F012FEADF8005000200C4C8DF80300F4
:100710006946204600F008FE43F6E070ADF80000A0
:1007200048208DF803006946204600F0FDFDF8BD25
:100730000004300000080140000C0140001001409E
:1007400008B50121082002F057F903208DF80200B6
:100750000002ADF8000014208DF80300694605483A
:1007600000F0E2FD04484FF4007101604FF4807125
:10077000016008BD000C0140100C014010B54FF4A1
:10078000C06001F015FE00F00BF800F07DF8FFF7F7
:1007900015FFFFF75BFFBDE81040FFF79FBE0000AD
:1007A00038B50121202002F027F94FF44044ADF87C
:1007B000004010208DF8030003208DF802006946E8
:1007C000024800F0B1FD0248046038BD0014014049
:1007D000101401400121014800F026BE000C014028
:1007E00030B585B00121082002F006F90121880406
:1007F00002F0F6F80120ADF8100010208DF813007B
:10080000164D03248DF8124004A9284600F08CFDF3
:10081000A002ADF8100018208DF813008DF81240DA
:1008200004A9284600F080FD4FF4165000900020E7
:10083000ADF80400ADF80600ADF80800ADF80C0006
:100840000820074CADF80A006946204602F0CEFEAB
:100850000121204602F082FE05B030BD000C0140AF
:100860000048004081B2014802F01EBF004800402D
:1008700010B58021034802F07BFE08B1002010BDB6
:10088000012010BD004800401FB51C208DF80C0051
:1008900001208DF80D0007218DF80E108DF80F0046
:1008A00003A801F057FD0121084602F099F84720FE
:1008B000ADF8000042F21070ADF804000020ADF871
:1008C0000600ADF802004FF080446946204602F071
:1008D00097FD01221146204602F08AFD01212046A3
:1008E00002F070FD1FBDFEE709484069810701D590
:1008F00001207047C00709D0064907480A6822F05E
:1009000003020A60416821F4407141600020704791
:100910004C00002060040020900000200448416941
:10092000490703D50021416001207047002070472E
:100930004C0000200D4810B5C3680D480A2BD0E9C3
:10094000001203DAC0E90312002109E0094CE4882F
:1009500004EB8404B3EB440F05DDC0E9031201216D
:100960004160012010BD002010BD00006004002087
:100970004C000020A803002000F0A4BA2DE910408C
:1009800000F084FA0028FBDA01490020087010BD4D
:100990003C00002070B500F079FA011E4FF0FF36E0
:1009A00011DB144C144B0025207870B16078421C88
:1009B000D2B219546270606841EA002000F54031FB
:1009C0006060491C0ED0304670BDEE2903D00BA0EC
:1009D00002F070FEF7E7EE201870012060702070C2
:1009E0006560F0E725700D490DA002F063FE6078A8
:1009F00070BD00003C000020A50000204552524F71
:100A0000523A2072785B2558685D206973206E6FBA
:100A10007420686561642E0D0A0000009C3D00088A
:100A200025732829203D2025640D0A0010B50D49A5
:100A30000DA002F03FFEEE2000F0A0FAB12000F081
:100A40009DFA012000F09AFAFF2000F097FAFC20AE
:100A500000F094FAFF2000F091FABDE81040FF206A
:100A600000F08CBABA3D0008257328290D0A000051
:100A700070B504460D460B460246154915A002F016
:100A800019FEEE2000F07AFAB12000F077FA122079
:100A900000F074FA200A00F071FAE0B200F06EFA89
:100AA00000240F4E03E0305D00F068FA641CAC4295
:100AB000F9DBFF2000F062FAFC2000F05FFAFF2073
:100AC00000F05CFABDE87040FF2000F057BA00006B
:100AD000233E000825732825642C2564290D0A006F
:100AE000A501002070B504460D460B460246134989
:100AF00013A002F0DFFDEE2000F040FAB12000F07C
:100B00003DFA202000F03AFA200A00F037FAE0B26D
:100B100000F034FA280A00F031FAE8B200F02EFAB8
:100B2000FF2000F02BFAFC2000F028FAFF2000F054
:100B300025FABDE87040FF2000F020BA073E00080B
:100B400025732825642C2564290D0A00034B0246D1
:100B5000000A5854481C1A54881C7047A5010020EC
:100B600030B5044610460023044A03E0E55C155402
:100B7000401C5B1C8B42F9DB30BD0000A50100204E
:100B8000F8B51646009204460D460B460246154936
:100B900015A002F08FFDEE2000F0F0F9B12000F07A
:100BA000EDF9102000F0EAF9200A00F0E7F9E0B2D0
:100BB00000F0E4F9280A00F0E1F9E8B200F0DEF90B
:100BC000304600F0DBF9FF2000F0D8F9FC2000F0FF
:100BD000D5F9FF2000F0D2F9BDE8F840FF2000F081
:100BE000CDB90000D83D000825732825642C256464
:100BF0002C2564290D0A000070B504460D461646E2
:100C0000EE2000F0BBF9B12000F0B8F9192000F097
:100C1000B5F9200A00F0B2F9E0B200F0AFF9280A05
:100C200000F0ACF9E8B200F0A9F9300A00F0A6F93A
:100C3000F0B200F0A3F9FF2000F0A0F9FC2000F0D2
:100C40009DF9FF2000F09AF9BDE87040FF2000F008
:100C500095B90000F8B51646009204460D460B46BD
:100C60000246154915A002F025FDEE2000F086F998
:100C7000B12000F083F9232000F080F9200A00F071
:100C80007DF9E0B200F07AF9280A00F077F9E8B2CD
:100C900000F074F9304600F071F9FF2000F06EF9B1
:100CA000FC2000F06BF9FF2000F068F9BDE8F84087
:100CB000FF2000F063B90000CA3D00082573282515
:100CC000642C25642C2564290D0A000010B5044607
:100CD0000246104910A002F0EDFCEE2000F04EF9A3
:100CE000B12000F04BF9002000F048F9200A00F094
:100CF00045F9E0B200F042F9FF2000F03FF9FC2096
:100D000000F03CF9FF2000F039F9BDE81040FF2069
:100D100000F034B9AA3D00082573282564290D0A7E
:100D200000000000F8B51646009204460D460B463A
:100D30000246184918A002F0BDFCEE2000F01EF992
:100D4000B12000F01BF9102000F018F9200A00F083
:100D500015F9E0B200F012F9280A00F00FF9E8B234
:100D600000F00CF90024104D03E0285D00F006F9B6
:100D7000641CB442F9DBFF2000F000F9FC2000F015
:100D8000FDF8FF2000F0FAF8BDE8F840FF2000F081
:100D9000F5B80000F93D000825732825642C25646A
:100DA0002C2564290D0A0000A5010020F8B516467F
:100DB000009204460D460B460246154915A002F066
:100DC00079FCEE2000F0DAF8B12000F0D7F803202B
:100DD00000F0D4F8200A00F0D1F8E0B200F0CEF82C
:100DE000280A00F0CBF8E8B200F0C8F8304600F06E
:100DF000C5F8FF2000F0C2F8FC2000F0BFF8FF208B
:100E000000F0BCF8BDE8F840FF2000F0B7B80000E3
:100E1000E83D000825732825642C25642C256429C9
:100E20000D0A000070B504460D460B4602461349F4
:100E300013A002F03FFCEE2000F0A0F8B12000F07B
:100E40009DF8212000F09AF8200A00F097F8E0B20F
:100E500000F094F8280A00F091F8E8B200F08EF85B
:100E6000FF2000F08BF8FC2000F088F8FF2000F055
:100E700085F8BDE87040FF2000F080B8153E0008FE
:100E800025732825642C2564290D0A0010B50B4A0A
:100E900092F8000192F80131984202D14FF0FF34EC
:100EA00009E0D45C5B1C82F80131002C03DB214695
:100EB00003A002F0FFFB204610BD0000A5020020A9
:100EC00025585E0030B52A4887B0002480F80041DC
:100ED00080F8014126208DF8140001208DF81500BE
:100EE00006218DF816108DF8170005A801F032FACA
:100EF0000121042001F080FD0121480401F070FD72
:100F000003208DF812000420ADF810001820194DB0
:100F10008DF8130004A9284600F006FA0820ADF861
:100F2000100048208DF8130004A9284600F0FCF9B1
:100F30004FF4E130ADF804400090ADF80640ADF854
:100F40000840ADF80C400C200B4CADF80A00694687
:100F5000204602F04BFB012240F22551204602F0D0
:100F60002DFB0121204602F0F9FA07B030BD000048
:100F7000A5020020000801400044004070B5094C63
:100F800005468021204602F0F3FA0028F9D02946D0
:100F9000204602F089FB4021204602F0E9FA0028B1
:100FA000F9D070BD004400400029016802D041F032
:100FB000010102E04FF6FE7211400160704700002F
:100FC00002684FF6FE7300211A4002600160416022
:100FD0008160C1603349334A0839904203D148687F
:100FE00040F00F0006E02F4A1432904204D14868C6
:100FF00040F0F000486070472A4A2832904203D1FE
:10100000486840F47060F5E7264A3C32904203D1CC
:10101000486840F47040EDE7224A5032904203D1D4
:10102000486840F47020E5E71E4A6432904203D1DC
:10103000486840F47000DDE71A4A7832904203D1E4
:10104000486840F07060D5E7174A904204D1D1F863
:10105000040440F00F0007E0134A1432904206D116
:10106000D1F8040440F0F000C1F8040470470E4ABF
:101070002832904204D1D1F8040440F47060F3E7C0
:10108000094A3C32904204D1D1F8040440F4704043
:10109000EAE7054A50329042E8D1D1F8040440F41E
:1010A0007020E1E7080002400804024070B50368C0
:1010B00047F6F0729343D1E904460D6A8A683443D7
:1010C0002A432243D1E906542A432243D1E9095451
:1010D0002A4322431A430260CA6842600A68826057
:1010E0004968C16070BD02F061BD000010B502F03A
:1010F00095FD00281FDBCC2002F026FEBE2002F06A
:1011000023FE02F0F3FD0C4C207002F0EFFD607046
:1011100002F084FD00280EDBCC2002F015FE4420F6
:1011200002F012FEB4F9000000EB80004000C1178D
:1011300000EB1170001110BD380000207047000056
:1011400070B50E4605460246114912A002F0B2FAE9
:101150001348144C016830312170406830306070A1
:101160002846FFF713F802462946A01CFEF7FCFFAD
:101170002846FFF70BF8801CC2B211210220FFF7AE
:10118000D1FD3246BDE8704011210220FFF734BD89
:101190001C3F000825732825732C290D0A00000028
:1011A0004C000020A50100202DE9F04105460C4629
:1011B00016461F4601F072F878B307F0FE0106F4F8
:1011C000E06841EAD81001F03FF801F0A5F820B33B
:1011D000F0B201F039F801F09FF8F0B101F05EF8DB
:1011E000D8B147EAD81040F0010001F02DF801F025
:1011F00093F890B10AE000BF00F0FEFF2870012CC8
:101200000CD000F0C5FF6D1C641EA4B2002CF3D1FD
:1012100001F068F80120BDE8F08102E000F0D2FFA3
:10122000F1E701F05FF80020F5E72DE9F04107460E
:101230000C4615469846500720D005F00700E6B248
:10124000C0F10800B04200DAC6B23146384600F0BC
:1012500023F800281ED0A81985B2A01B374484B2F9
:101260000CE043462A460821384600F015F80028CD
:1012700010D008350837083CADB2A4B2082CF0D223
:101280003CB143462A462146384600F005F800287E
:1012900000D00120BDE8F0812DE9F04105460C4663
:1012A00016461F4600F0FAFF20B307F0FE0006F4D2
:1012B000E06140EAD11000F0C7FF01F02DF8C8B19D
:1012C000F0B200F0C1FF01F027F898B108E02878EB
:1012D00000F0BAFF01F020F860B16D1C641EA4B2EA
:1012E000002CF4D100F0FEFF0A2002F07DFC01206A
:1012F000BDE8F08100F0F6FF0020F9E7094910B5DC
:1013000091F8002191F80141531CDBB2A34202D1B4
:101310004FF0FF3010BD885491F80021521C81F825
:10132000002110BD840400202DE9F041CA78002579
:10133000D30602F00F0201D58B781A430B884FF0C9
:101340000F084FF0010C13F0FF0F1CD0D0F8004035
:101350000E880CFA05F31E409E4210D1AF0008FA29
:1013600007F624EA060602FA07F43443CE78282E5C
:1013700002D0482E02D002E0436100E003616D1C00
:10138000082DE5D304600B88FF2B1DD94468002588
:1013900005F108060CFA06F30E881E409E420FD196
:1013A000AF0008FA07F624EA060602FA07F4344307
:1013B000CE78282E00D14361CE78482E00D103612B
:1013C0006D1C082DE4D34460BDE8F081F0B5144CE9
:1013D000002801DAE36900E06368420D120185B27A
:1013E000C0F301579540C0F30346032F05D0C20256
:1013F0000AD50322B240934307E023F0706263688A
:1014000023F07063636002E0AB4343F0706201B1AC
:101410002A43002801DAE261F0BD6260F0BD0000FD
:10142000000001404161704701617047094810B5F3
:10143000002101600849C16000F0C4FFFFF753FEBE
:10144000044832211030016064214160BDE8104041
:1014500002F02EB86004002056F5FFFF70B5244D51
:10146000244C28686168884203D000F0ABFF2868EC
:101470006060214A2188214B5089884207D0208012
:1014800059884143C81701EB104000146860108967
:101490006188884207D0608099884143C81701EB72
:1014A00010400014A86012481030C16800291DD0F7
:1014B0000021C160FFF71AFE0146E86840F6AA2243
:1014C000121806D101F28F10B0F59C6F0DD90CA047
:1014D00007E0A0F164028A4202DC6430884204DA48
:1014E0000FA0BDE8704002F0E5B8E96070BD0000F3
:1014F000600400206C00002090000020A803002061
:101500004572726F722074656D7020544F4F206861
:101510006967682F6C6F773A2025640D0A00000018
:101520004572726F722054656D70204368616E67FA
:10153000653A2025640D0A0070B5054602460F493C
:101540000FA002F0B7F8114C2846FFF7BFFB0220AE
:1015500000F01EF8FFF712FAFFF768FA00F02CFD12
:101560000028F1DB6078B128EED1A0780128EBD11A
:10157000B4F8030040BAA842E6D170BD5B3E000853
:101580002573282564290D0A00000000A50000200D
:1015900070B50446064D002606E0EE6000F026F821
:1015A000E8680028FAD0641E002CF6D170BD000057
:1015B000B803002070B50446084D00260AE0214615
:1015C00007A002F077F8EE6000F010F8E868002855
:1015D000FAD0641E002CF2D170BD0000CC030020B4
:1015E00064656C61792025750D0A00007FB500F0F7
:1015F0009DF9FFF733FF01F06DFF00F021FD01F0D1
:1016000065FA3348C168002961D0324C0021C160BD
:1016100094E80F008DE80F002F4D3048D5E90023E6
:1016200001684E1C06602EA002F044F8552001F01F
:101630004BFA552001F048FA552001F045FA5520A3
:1016400001F042FA2868C0F3072001F03DFA28684B
:10165000C0B201F039FA6868C0F3072001F034FA2B
:101660006868C0B201F030FA2068C0F3072001F0CA
:101670002BFA2068C0B201F027FA6068C0F3072097
:1016800001F022FA6068C0B201F01EFAA068C0F34F
:10169000072001F019FAA068C0B201F015FAE0685D
:1016A000C0F3072001F010FAE068C0B201F00CFAB4
:1016B000AA2001F009FAAA2001F006FAAA2001F0F6
:1016C00003FA04B0AA20BDE8704001F0FDB97FBD67
:1016D0000804002060040020900000204400002046
:1016E0005B25755D202558682C202558682C202501
:1016F00058683B2025642C2025642C2025642E0D61
:101700000A00000010B52B492BA001F0D3FFA02345
:1017100080220E212A48FFF747FD2A4C012834D1A8
:101720000E2227492046FEF71FFD218826A001F042
:10173000C1FF618828A001F0BDFFA1882BA001F0A6
:10174000B9FFE1882EA001F0B5FF218931A001F099
:10175000B1FF618934A001F0ADFFA18936A001F08D
:10176000A9FFA0892188084461880844A188084409
:10177000E1880844218908446189084481B2A18133
:1017800031A001F097FFA08978B1142060804FF458
:101790009670A0806420E08040F2E7302081002035
:1017A0006081BDE8104000F087BBBDE8104029A073
:1017B00001F080BF7A3E0008257328290D0A000039
:1017C000A5000020A80300202D2D206D616769630E
:1017D0003A202558680D0A002D2D20766F6C743A3A
:1017E0002020256420560D0A000000002D2D2063C6
:1017F0007572723A2020256420410D0A0000000015
:101800002D2D2074656D703A2020256420430D0A2B
:10181000000000002D2D2074696D653A202025649C
:10182000204D696E0D0A00002D2D206D6F64653A04
:1018300020202558680D0A002D2D20636865636BF4
:101840003A202558680D0A003D3D3E202558680D78
:101850000A00000076657269667920706173730D05
:101860000A00000010B5A023402208211248FFF70B
:101870009BFC012814D1104908780A791044FF28EC
:101880000ED148784A791044FF2809D188788A799E
:101890001044FF2804D1CC78C8792044FF2804D014
:1018A000002000F037FB002010BD2246034904A0B1
:1018B00001F000FF204610BDA5000020973E000863
:1018C000257328293D25640D0A000000F8B5114C48
:1018D00005460E461746A02300220621A01CFFF74E
:1018E00063FC0028F7D0A0782870E0783070207969
:1018F000E3790102607908430102A079084343EAD1
:1019000000233B60009333782A78034903A001F059
:10191000D1FEF8BDA5000020BB3E00082573282598
:10192000642C25642C2564290D0A00000D4810B58F
:10193000C16839B10021C1600B494868401C48604A
:1019400000F0E8FA09484168CA050AD5026892051C
:1019500007D421F480714160BDE8104004A001F07B
:10196000A9BE10BDE003002044000020900000202C
:1019700048535F4C6F6769633A20504F5745522078
:101980004F464620666F72206E6F74205957470D80
:101990000A00000000252D492DA001F08BFE01F06A
:1019A0007DFD00F035FB01F07FF8FEF7E5FFFFF766
:1019B0003DFD294800240A27C0E9004701F078FDD1
:1019C000254864261430C0E9004601F071FD224824
:1019D0005030C0E9007601F06BFD1F4814213C3007
:1019E000C0E9001601F064FD1B4841F27071283017
:1019F000C0E9004101F05CFDFFF784FEFFF732FF14
:101A000016494860062D17D2DFE805F003060A0DD7
:101A1000101300F033F801E000F04CF804460CE03D
:101A200000F080F8FAE700F0FBF8F7E700F02CF997
:101A3000F4E700F089F9F1E70024AC42E2D0224655
:101A4000294607A001F036FE2546DBE7533E000895
:101A5000257328290D0A0000B80300204400002047
:101A60007377697463682073637265656E3A2025C5
:101A700064202D3E2025640D0A00000010B50949A0
:101A800009A001F017FE0020FFF756FD0620FFF722
:101A900091FD07484089C00701D0022010BD0120F8
:101AA00010BD0000D03E0008257328290D0A000053
:101AB000A803002010B5174917A001F0FBFD012075
:101AC000FFF73AFD164C00BFFFF790FDFEF762FFEF
:101AD0000028F9DD6078B128F6D1A0781128F3D17B
:101AE000B4F8030040BA0128EED1E0791028EBD118
:101AF000B4F8050041BA012908D041BA89B20329D6
:101B000006D040BA80B20428DED110BD022010BD3C
:101B1000032010BDDA3E0008257328290D0A0000B5
:101B2000A5000020FEB52D492DA001F0C3FD2E48D3
:101B30002E4D4089C0070FD002AA01A96846FFF7C1
:101B4000C5FE9DF8001029609DF804206A60029B84
:101B500027A0AB6001F0AEFD0220FFF7EDFC2A48A4
:101B60000921C1604FF0FF31816001604160416235
:101B7000016281610161416100F07AFC0026286800
:101B800007281DD2DFE800F004070D101319160016
:101B900001F008FB01E001F041FB044609281AD0DE
:101BA00010E001F0B9FAF8E701F050FAF5E701F0BA
:101BB00075FBF2E701F094F9EFE701F0EBF9ECE7E0
:101BC00034466E6029688C42D9D022460FA001F0BD
:101BD00071FD2C60D3E70120FEBD0000253F000809
:101BE000257328290D0A0000A80300204C000020BE
:101BF0004175746F204D6F64653A2025642025641B
:101C00002025640D0A0000001C0400207374657018
:101C10003A202564202D3E2025640D0A0000000096
:101C200010B5144914A001F045FD0320FFF784FC12
:101C300013484FF0FF3181604160016000F060FDAA
:101C4000104C00BFFFF7D2FC00F05AFDFEF7A2FED9
:101C50000028F7DD6078B128F4D1A0782628F1D1EA
:101C6000B4F8030040BA0328ECD100F0E1FC0028EE
:101C7000E8DB10BD2F3F0008257328290D0A00005E
:101C800044040020A500002070B5274927A001F0DA
:101C900011FD0420FFF750FC04210846FFF7C2F8AD
:101CA000244D0020244C2860686000BFFFF79EFC94
:101CB000FEF770FE0028F9DD6178B129F6D1A17830
:101CC0001129F3D1B4F8031049BA0429EED1B4F8BC
:101CD00005104ABA012A02D1E279102A04D04ABA80
:101CE00092B2032A02D00AE0012070BDE279112AE3
:101CF00005D1152803D1A0682860E068686048BA5B
:101D000080B20228D2D1E0791028CFD108220BA1CD
:101D10000848FEF743FA20B104210846FEF7E2FE28
:101D2000C4E7052070BD0000393F0008257328294D
:101D30000D0A000064000020A50000203633323078
:101D40003736333300000000F8B5564956A001F08D
:101D5000B1FC0520FFF7F0FB00F0ACFD544C4FF454
:101D6000967604F10807534DFFF740FCFEF712FE8C
:101D70000028F9DD6078B128F6D1A0781128F3D1D8
:101D8000B4F8030040BA0528EED1B4F8050041BA12
:101D9000062902D1E179102904D040BA80B2022884
:101DA00004D014E000F088F80120F8BDE079112893
:101DB0000DD10A2269463846FEF7FDF9142800D9EC
:101DC00014206988814202D0688000F073FDB4F865
:101DD000050040BA032810D1E07911280DD10A225C
:101DE00069463846FEF7E7F9B04200D93046A9887F
:101DF000814202D0A88000F05DFDB4F8050040BA31
:101E0000042810D1E07911280DD10A2269463846FC
:101E1000FEF7D1F9642800D96420E988814202D014
:101E2000E88000F047FDB4F8050040BA052812D15B
:101E3000E07911280FD10A2269463846FEF7BBF92E
:101E4000B0F57A7F01D340F2E7302989814202D090
:101E5000288100F02FFDB4F8050040BA01280AD10E
:101E6000E079102807D16889C10704D020F001006B
:101E7000688100F01FFDB4F8050040BA07287FF420
:101E800073AFE0791028FAD16889C107F7D140F023
:101E90000100688100F00EFD00221146104600F09E
:101EA00061F861E7433F0008257328290D0A000007
:101EB000A5000020A803002010B5114911A001F0D1
:101EC000F9FB124845F2AA51018042884AF6562190
:101ED000891A8288891AC288891A0289891A4289CC
:101EE000891A818101460E220948FEF73DF9A02397
:101EF0008022BDE810400E210548FFF796B900008A
:101F00006C3E0008257328290D0A0000A803002054
:101F1000A501002010B5044602460D490DA001F0B0
:101F2000C9FB0F48230E210C03704170220A8270F6
:101F3000C470DB430371C9434171D1438171E143F3
:101F4000C171A0234022BDE810400821FFF76DB900
:101F5000883E00082573282564290D0A000000002A
:101F6000A5010020F8B51446009206460D460B4622
:101F700002460B490BA001F09DFB0E4A200EA02348
:101F8000167055709070200CD070200A107154712A
:101F900001B00022BDE8F04006210648FFF745B930
:101FA000A63E000825732825642C25642C25642969
:101FB0000D0A0000A501002010B50B4C0020E060C8
:101FC000FFF714FBFEF7E6FC002803DCE0680028BE
:101FD000F6D002E0E168002904D004A001F06AFB19
:101FE0004FF0FF3010BD0000B80300204552524FA3
:101FF000523A207761697420646F776E20636D6454
:102000002074696D65206F7574210D0A0000000051
:1020100000200949FF220A54401CC0B20928FAD303
:102020000649002008600449203908600120486002
:10203000084601F03DBA00009C0000202C00002062
:10204000F0B54D48C16800296FD00024C4604B48EA
:1020500020228168484B8DB220332046A3F10C0129
:102060001E5C7606360E1E54154202D046F001065E
:102070001E54F6B2802E02D07F2E03D005E00E68EB
:10208000164301E00E6896430E605204401C120C89
:10209000C0B20928E4D300204B680246DD0401D514
:1020A000012000E001229D0502D542F0100201E06E
:1020B00040F01000DD0502D542F0200201E040F0C2
:1020C00020002F4D40EA0240C5F8100800200246CB
:1020D0001E0601D5102200E010205E0602D542F057
:1020E000200201E040F020009E0602D542F04002AE
:1020F00001E040F04000DE0602D542F0800201E03F
:1021000040F080001E0702D542F4805201E040F406
:1021100080505E0702D542F4005201E040F40050C6
:102120009E0703D542F4804202E023E040F4804061
:10213000DB0702D042F4004201E040F4004040EAF4
:102140000240C5F8100C0F480F4A036815881D445B
:10215000056056884368021F1E44466013685B1C76
:102160001360202B06D36B080B8173084B8114601E
:1021700004604460F0BD00007C00002000100140BD
:10218000000001403000002018000020FEE70000A1
:1021900070B50B4C4FF4807565604FF0050001F091
:1021A00031FD60156060052001F02CFD25600520E3
:1021B00001F028FD6560BDE87040052001F022BDFA
:1021C000100C014070B50B4C4FF4807565604FF0FA
:1021D000050001F017FD60152060052001F012FDDB
:1021E0002560052001F00EFD6560BDE8704005200A
:1021F00001F008BD100C01402DE9F041114C0826FA
:102200000025B001C4F8100C471011E06806050E57
:10221000C4F8147C052001F0F5FCC4F8107C0520FE
:1022200001F0F0FCD4F8080C800501D545F001055B
:102230003000A6F10106F6B2E8D1C4F8147C2846B5
:10224000BDE8F081000001402DE9F0410825074676
:102250004FF400786E01104C14E0052001F0D2FC20
:102260003806404602D5C4F8100C01E0C4F8140C3E
:102270007806070E052001F0C5FCC4F8106C052097
:1022800001F0C0FC2800A5F10105EDB2C4F8146C02
:10229000E3D1BDE8F08100000000014070B5104CB2
:1022A0004FF40075A5604FF48070A0604FF00500FA
:1022B00001F0A8FC2068A4F60844C4F8145C4FF0B0
:1022C000050001F09FFCD4F8080C800501D5002022
:1022D00070BDC4F8145C052001F094FC012070BDB1
:1022E000080C014070B50B4C4FF4807565604FF0E1
:1022F000050001F087FC66156660052001F082FC90
:102300002560052001F07EFC2660BDE870400520B8
:1023100001F078BC100C014070B50C4D4FF4807486
:10232000EC604FF0050001F06DFC6000A860052036
:1023300001F068FCAC60052001F064FC2868EC60EA
:10234000800501D5002070BD012070BD080C014042
:10235000FEE77047F0B50F22C57803784FF0E02113
:102360000124E5B1D1F80C5D467805F4E065C5F5CA
:10237000E0652D0AC5F10407EA408578BE401540A6
:1023800035430B442A0183F800240078420900F009
:102390001F00844001EB8200C0F80041F0BD03F053
:1023A0001F008440580901EB8000C0F88041F0BD57
:1023B0000249084302490860704700000000FA051E
:1023C0000CED00E00D4802680D48D107436823F08A
:1023D000F00102D041F0900101E041F06001416064
:1023E00091070029416821F00F0102DA41F009014B
:1023F00001E041F0060141607047000060040020E8
:102400009000002010B5184C00206061FEF7C2FA61
:10241000002824DD15484178B12920D1817826296A
:102420001DD1B0F8031049BA022918D1B0F805102F
:102430004ABA092A06D1C279012A03D1626942F057
:102440000402626149BA89B2082908D1C079012819
:1024500006D0002803D1606940F00200606110BD21
:10246000606940F00100F9E74C000020A500002061
:1024700070B5634C634EE168306881420DD0A8B1FD
:10248000012209210220FEF7E5FB30680B21C2B2D0
:102490000220FEF7DFFB3068E0605B4D21682868B2
:1024A000814228D0800403D5002202E00022E8E720
:1024B00001220E210220FEF779FC2868000501D5D3
:1024C000002200E0012210210220FEF76FFC2868A4
:1024D000810501D5072208E0C10501D5022204E0EB
:1024E000000601D5002200E0FF220F210220FEF7A6
:1024F000B1FB2868206061686868814214D080055B
:1025000001D5012200E000220D210220FEF74EFC41
:102510006868C00501D5012200E0002207210220E1
:10252000FEF744FC68686060216AB0683C2581421F
:1025300013D0B0FBF5F0B0FBF5F205FB120333A1AD
:10254000344801F0C7F83348FDF720FEC2B203213A
:102550000220FEF7E7FBB06820622F4E616A306808
:1025600081420FD0B0FBF5F22CA12A4801F0B2F85D
:102570002848FDF70BFEC2B205210220FEF7D2FB70
:1025800030686062264D6069AA6890420DD025A12E
:10259000204801F09FF81F48FDF7F8FDC2B2022164
:1025A0000846FEF7BFFBA868606120696A68904230
:1025B0000DD01CA1174801F08DF81648FDF7E6FD77
:1025C000C2B201210220FEF7ADFB68682061A1695B
:1025D000E868814212D00A2190FBF1F201FB12035C
:1025E00011A10C4801F076F80A48FDF7CFFDC2B200
:1025F00004210220FEF796FBE868A06170BD000090
:102600001C0400204C0000209000002025643A2586
:1026100064000000A501002048000020257500008E
:10262000600400202564000025642E25640000005D
:1026300070B53048304D314CB0F80500296843BAC8
:102640002C4862680B2BC07951D2DFE803F0503C74
:102650004146504B1E2328360600012801D068B1A0
:1026600045E001220A210320FEF7F4FA286820F051
:1026700003002860606820F4407022E000220A21F4
:102680000320FEF7E7FA012070BD01282FD142F4A4
:10269000007016E001282AD122F4007011E0012810
:1026A00025D142F480706060206880051FD401222B
:1026B0000F210320FEF77AFB19E0012817D122F43D
:1026C0008070606013E0012811D141F001000DE03D
:1026D00001280CD121F0010008E0012807D141F0C8
:1026E000020003E0012802D121F0020028604FF02F
:1026F000FF3070BDA5000020600400209000002085
:1027000070B5694D694C2968206881422ED08105D9
:1027100001D5072208E0C10501D5022204E0000628
:1027200001D5002200E0FF220E210320FEF792FADD
:102730002068800504D500220F210320FEF736FB18
:102740002068800401D5002200E001220C21032032
:10275000FEF72CFB2068000501D5002200E00122D5
:102760000D210320FEF722FB20682860686861685D
:10277000884253D000210620FEF7E8F901460220E6
:10278000FEF7E4F901466068C0F34020FEF7DEF989
:1027900001460720FEF7DAF901460220FEF7D6F9D6
:1027A0000146606840F34020401CFEF7CFF9014627
:1027B0000820FEF7CBF901460220FEF7C7F90146D3
:1027C0006068C0F30020FEF7C1F901460920FEF75A
:1027D000BDF901460220FEF7B9F90146606840F3F1
:1027E0000020401CFEF7B2F901460320FEF740F935
:1027F0006068800501D5012200E000220B21032042
:10280000FEF7D4FA6068C00501D5012200E000227D
:1028100004210320FEF7CAFA60686860244CA868A7
:10282000216888423FD000210120FEF78FF9014640
:102830000220FEF78BF90146206800F00100FEF748
:1028400085F901460220FEF781F901460220FEF7D4
:102850007DF90146206840F30000401CFEF776F940
:1028600001460320FEF772F901460220FEF76EF9D9
:1028700001462068C0F34000FEF768F901460520D4
:10288000FEF764F901460220FEF760F90146206870
:1028900040F34000401CFEF759F901460320FEF7C3
:1028A000E7F82068A86070BD440400209000002074
:1028B0006004002070B500210220FEF747F9394C72
:1028C000064639A16288394800F004FF3748FDF711
:1028D0005DFC0546314680B2FEF738F902462946CE
:1028E0003248FEF73DF901460320FEF72FF9064670
:1028F000A2882DA12D4800F0EDFE2C48FDF746FCE6
:102900000546314680B2FEF721F90246294627489E
:10291000FEF726F901460420FEF718F90646E2887C
:1029200021A1224800F0D6FE2048FDF72FFC0546E5
:10293000314680B2FEF70AF9024629461B48FEF7E7
:102940000FF901460520FEF701F90646228916A176
:10295000164800F0BFFE1548FDF718FC0546314645
:1029600080B2FEF7F3F8024629461048FEF7F8F861
:1029700001460520FEF77CF86089C00706D00022DA
:1029800001210520FEF7FCF8012205E00122114695
:102990000520FEF7F5F80022BDE87040072105206C
:1029A000FEF7EEB8A80300202564000050040020C4
:1029B00070470000034A516821F4404101435160CF
:1029C0007047000000100240044A0029516901D0FC
:1029D000014300E081435161704700000010024054
:1029E000044A0029D16901D0014300E08143D1614B
:1029F0007047000000100240044A0029916901D08C
:102A0000014300E0814391617047000000100240E3
:102A1000214910B54B68214A13F00C0303D0042B55
:102A200001D0082B26D002604A681D4B02F0F0024C
:102A300012099C5C0268E24042604C6804F4E06465
:102A4000240A1C5D22FA04F484604C6804F4605487
:102A50004FEAD4241B5D22FA03F2C2604968104B8E
:102A600001F440414FEA91311B1F595CB2FBF1F177
:102A7000016110BD4A684B68022402F4701204EB35
:102A8000924213F4803F02D04B689B0301D5054B63
:102A900000E0024B5A43C6E70010024000127A00E1
:102AA0000400002000093D00064810B5002180F810
:102AB000001180F80111FDF793FEBDE81040FDF70D
:102AC00089BE000084040020FEF718BC10B5FDF795
:102AD000CFFE002810D1094A92F8000192F80111A6
:102AE000884209D0505C491C82F80111002803DBA0
:102AF000BDE81040FDF7B6BE10BD00008404002004
:102B00007047000021480021026842F480320260D0
:102B10004FF4A0630268491C12F4003F01D19942AE
:102B2000F8D10168890330D519490A6842F01002CA
:102B30000A600A6822F003020A600A6842F0020290
:102B40000A604168416041684160416841F48061C8
:102B50004160416821F47C114160416841F4E81111
:102B60004160016841F08071016001688901FCD514
:102B7000416821F003014160416841F00201416078
:102B80004168C1F381010229FAD170470010024067
:102B90000020024070B51948194C1A4D016821F007
:102BA0000301016060684FF4784120F44070606078
:102BB000686820B1012804D0022811D105E012A0D4
:102BC00000E015A0FEF7BCFA0AE017A0FEF7B8FA7D
:102BD0006068194940F4805060600020C8608860D7
:102BE00016484089C00708D0D5E90102C1B228685B
:102BF000BDE87040C0B2FFF7B5B970BD60040020F9
:102C0000900000204C000020CEC2B6C8B9FDB5CD62
:102C1000D4DDCDA300000000CEC2B6C8B9FDB8DF38
:102C2000D4DDCDA300000000B5E7D4B4B9CAD5CF38
:102C3000D4DDCDA300000000F4030020A803002091
:102C400070B51B4C1B4D1C4E606810B1012822D181
:102C50000EE04FF6203119A0FEF772FA1A4801680B
:102C600021F003010160686820F40070686012E0E0
:102C70004FF4C06115A0FEF763FA686840F48070F5
:102C80006860A06820B93089C0EB00108000A060A7
:102C900011490020C8607089C00708D0D4E901023A
:102CA000C1B22068BDE87040C0B2FFF75BB970BD2B
:102CB0004C00002090000020A8030020B5C8B4FDFF
:102CC000B9D8B5BDCEBB000060040020B5E7BDE2B9
:102CD000BDF8D0D0D6D00000F403002070B5164D5A
:102CE0004FF62031686828B1144C012806D002281C
:102CF00014D10CE012A0FEF723FA0FE04FF4C061EC
:102D000012A0FEF71DFA206840F0010005E012A0B5
:102D1000FEF716FA206820F0010020601148408973
:102D2000C00708D0D5E90102C1B22868BDE87040EB
:102D3000C0B2FFF717B970BD4C000020600400203E
:102D4000C8B7C8CFD2BACEBBD6D00000D7B0C8EB78
:102D5000C7E5CBAED6D00000B5C8B4FDB9D8B5BD77
:102D6000CEBB0000A803002010B5144C606810B161
:102D7000012815D10FE04FF6203111A0FEF7E0F940
:102D80001248016821F0030101601148416821F4F3
:102D90004071416004E04FF4C0610EA0FEF7D0F92D
:102DA0000F484089C00708D0D4E90102C1B22068A9
:102DB000BDE81040C0B2FFF7D5B810BD4C000020F0
:102DC000B5C8B4FDB9D8B5BDCEBB000060040020C5
:102DD00090000020B5C8B4FDC6F4B6AF00000000F6
:102DE000A803002010B5124C606810B1012810D162
:102DF00005E04FF620310FA0FEF7A2F909E04FF4ED
:102E0000C0610FA0FEF79CF91048416841F40071C1
:102E100041600F484089C00708D0D4E90102C1B21F
:102E20002068BDE81040C0B2FFF79CB810BD00009C
:102E30004C000020B5C8B4FDD2BACEBBB5CD000061
:102E4000D7B0C8EBD1CECBAED6D0000090000020DA
:102E5000A803002070B5164D164C686820B10128F3
:102E600006D002280DD119E04FF4784112A018E0E5
:102E70004FF4C06113A0FEF763F9206840F0020030
:102E8000206013484089C00711D0D5E90102C1B2C2
:102E90002868BDE87040C0B2FFF764B84FF6203133
:102EA0000CA0FEF74DF9206820F00200E8E770BDA5
:102EB0004C00002060040020B4A2D2A9CFE4D2D1FB
:102EC000C2FA0000D7AAB4E6D2A9D2BAD6D000007E
:102ED000A8030020B5C8B4FDB9D8B5BDCEBB00006D
:102EE0002DE9F047234924A000F0E4FBFFF752FE50
:102EF000234C244E244F4FF00009244DDFF89080DE
:102F0000FEF774FBFFF7B4FAFFF77CFAFDF7ECFC71
:102F100010B10920BDE8F087FDF700FD08B10020E1
:102F2000F8E7606858B101280DD00228E8D1286878
:102F3000800613D4686820F4805068600AE0F06866
:102F40000A28DDDD06E0F888F16800EB8000B1EBCF
:102F5000400FD5DA20696060E068DBE7D8F80C1034
:102F60000029CDD0C8F80C90686880F48050686063
:102F7000C6E700000C3F0008257328290D0A000051
:102F80004C00002060040020A803002090000020D6
:102F9000F403002070B5224922A000F08BFB2348E7
:102FA000234C4089C00706D0D4E90102C1B2206891
:102FB000C0B2FEF7D7FF4FF4C0611EA0FEF7C0F805
:102FC0001F48214D0026016821F0030101601D48C2
:102FD000416821F4407141600520A060C5F80C6093
:102FE000FEF704FBFFF744FAFFF70CFAFDF77CFC51
:102FF00008B1092070BDFDF791FC08B1002070BD3B
:10300000FDF798FC08B1062070BDE8680028E7D0FD
:10301000EE60A06810B1401EA060E1D1012070BD3B
:10302000143F0008257328290D0A0000A80300207A
:103030004C000020D1ADBBB7BCE4D0AAD6D0000074
:103040006004002090000020F40300202DE9F041EE
:103050002B492CA000F02EFB2C4C00266660FFF7BD
:10306000EFFD2B4D2B4F4FF0010800BFFEF7BEFACE
:10307000FFF7FEF9FFF7C6F9FDF736FC10B109209E
:10308000BDE8F081FDF74AFC08B10020F8E7FDF744
:1030900051FC08B10620F3E72868810606D52068B0
:1030A000E0606068206102206060F3E76168B9B1A8
:1030B0000129DBD1F8680028D8D0FE60A268C2B12F
:1030C000521EA26015D03C20B2FBF0F100FB112093
:1030D0000028CBD120684146C0B2FEF743FFC5E7C8
:1030E0004FF428518143C1D1C4F80480FFF7A8FDF3
:1030F000BCE76660686820F4807068600420BFE701
:10310000FC3E0008257328290D0A00004C00002011
:1031100090000020F40300202DE9F0411C491DA07F
:1031200000F0C8FAFFF7DAFD01261C4C02271C4DFF
:10313000FEF75CFAFFF79CF9FFF764F9FDF7D4FBA3
:1031400010B10920BDE8F081FDF7E8FB08B10020CF
:10315000F8E7FDF7EFFB08B10620F3E7606850B130
:1031600001280DD00228E3D128688004E0D5002092
:1031700060600320E6E72868C005D9D5666003E0F3
:1031800028688005D4D56760FFF7A8FDD0E7000068
:10319000F43E0008257328290D0A00004C00002089
:1031A000900000202DE9F041174918A000F082FAA4
:1031B000FFF7DAFD174E184C4FF42055012700BFDA
:1031C000FEF714FAFFF754F9FFF71CF9FDF78CFB33
:1031D00010B10920BDE8F081FDF7ACFB08B1062075
:1031E000F8E7606840B10128EAD160694007E7D597
:1031F000002060600120EDE7306835EA0000DFD193
:103200006760FFF7B1FDDBE7E43E0008257328297E
:103210000D0A0000900000204C00002070B51A49F3
:103220001AA000F047FAFFF7DDFD1A4C01261A4DEF
:10323000FEF7DCF9FFF71CF9FFF7E4F8FDF754FBA4
:1032400008B1092070BDFDF769FB08B1002070BD11
:10325000FDF770FB08B1062070BD606860B1012801
:10326000E6D12868C005E3D500206060686820F4D6
:1032700000706860022070BD28680006D8D56660BE
:10328000FFF7B0FDD4E70000EC3E000825732829C5
:103290000D0A00004C000020900000202DE9F047AE
:1032A000204921A000F006FAFFF7D4FD0027204EA8
:1032B0004FF001081F4D4FF002091F4CFEF796F921
:1032C000FFF7D6F8FFF79EF8FDF70EFB10B10920C7
:1032D000BDE8F087FDF722FB08B10020F8E7686839
:1032E00048B1012816D00228E8D120680005E5D5AC
:1032F00005206F60ECE72068400604D5F0680028E0
:10330000DCD0F760DAE7606820F480506060C5F8D0
:10331000048004E020680006D0D5C5F80490FFF7CB
:1033200099FDCBE7043F0008257328290D0A00000A
:10333000F40300204C0000209000002002480168A7
:10334000491C016070470000140000200F4810B5B0
:10335000016841F00101016041680D4A114041607E
:1033600001680C4A11400160016821F4802101606C
:10337000416821F4FE0141604FF41F018160FFF7B5
:10338000C1FB05494FF00060086010BD001002400D
:103390000000FFF8FFFFF6FE08ED00E010B5012188
:1033A0008C07204600F018F8002807D0012120469D
:1033B00000F005F8BDE8104000F0A6B810BDC94304
:1033C000018270470029018802D041F0010101E02B
:1033D00021F001010180704702460020138A928982
:1033E0000B4202EA010202D0002A00D001207047FD
:1033F000002A828901D00A4300E08A438281704713
:1034000030B502881B4B1C4C98420DD0A0420BD00B
:10341000B0F1804F08D0194DA84205D0184DA842F0
:1034200002D0184DA84203D122F070054A882A43E1
:10343000154DA84206D0154DA84203D022F4407580
:10344000CA882A4302808A88984282850A8802852F
:103450000AD0A04208D00E4A904205D00D4A9042B0
:1034600002D00D4A904201D1097A01860121818260
:1034700030BD0000002C0140003401400004004039
:1034800000080040000C0040001000400014004004
:103490000040014000440140004801400348002131
:1034A000416001608160C160704700001C00002025
:1034B00000280AD000210268C0E902210161044904
:1034C0000A681AB14A681061486070470860FBE7F3
:1034D0001C0000200B48D0E902128A4211D0C160C2
:1034E00000680CE042684AB18168491C81609142E1
:1034F00004D9891A8160C168491CC160006900282B
:10350000F0D170471C00002002488168491C81608E
:10351000704700001C00002010B50E4C40F22551F1
:10352000204600F02CF8002812D0204600F0B8F811
:10353000C2B2094890F8001190F801414B1CDBB26F
:10354000A34205D0425490F80011491C80F80011A4
:1035500010BD000000440040A50200200029818920
:1035600002D041F4005101E021F400518181704703
:103570000246002012880A4200D00120704770B530
:1035800001F01F0601220025C1F3421302FA06F4DE
:10359000012B0FD0022B0FD0838A4FEA1121008814
:1035A000234202FA01F200EA020001D000B1012533
:1035B000284670BD8389F0E7038AEEE710B5C1F3B2
:1035C000421301F01F040121A140012B07D0022B5F
:1035D00007D01430002A026805D00A4304E00C30FA
:1035E000F8E71030F6E78A43026010BD30B50446B4
:1035F000008A85B00D464CF6FF710840E98801430A
:103600002182A1894EF6F3100140A8882A8910432F
:103610006A890A431043A081A08A4FF6FF410840FF
:10362000A9890143A1826846FFF7F2F91B48844249
:1036300001D1039800E00298A1890904002900EB58
:10364000C00101EB0010296802DA4FEA410101E0F4
:103650004FEA8101B0FBF1F06422B0FBF2F14FEAD6
:1036600001114FEA11136FF018056B43A58900EBA8
:1036700083004FF032032D0406D503EBC000B0FBEE
:10368000F2F000F0070005E003EB0010B0FBF2F0F1
:1036900000F00F000843208105B030BD0038014024
:1036A0008088C0F308007047C1F30801818070472B
:1036B000FEE700000FB4054B10B503A9044A0298B9
:1036C00000F030F810BC5DF814FB0000613D00080C
:1036D000740000200FB4084B10B504A902AA039887
:1036E00000F020F8044602A9002000F059FA204614
:1036F00010BC5DF814FB0000A13B000800487047B7
:103700007800002002E008C8121F08C1002AFAD180
:1037100070477047002001E001C1121F002AFBD151
:10372000704700002DE9FF4F8DB005460F4600267B
:10373000EEE1252879D100246D1CF94AA246A14664
:1037400001212B78203B01FA03F0104202D0044300
:103750006D1CF6E728782A2810D06FF02F02287801
:10376000A0F13001092915D80AEB8A0102EB4101C9
:1037700044F0020400EB010A6D1CF0E757F804ABBB
:10378000BAF1000F03DA44F40054CAF1000A44F01D
:1037900002046D1C28782E2817D115F8010F44F06B
:1037A00004042A280ED06FF02F022878A0F13001EF
:1037B00009290AD809EB890102EB410100EB010953
:1037C0006D1CF2E757F8049B6D1C28786C280FD00D
:1037D00006DC4C2817D068280DD06A2814D104E0E4
:1037E000742810D07A280FD10DE044F400140AE0B8
:1037F00044F4801401E044F440146978814202D119
:103800006D1C04F580146D1C95F800C0BCF16E0FA2
:103810002AD012DCBCF1630F3CD007DCBCF1000FF6
:1038200076D0BCF1580F19D1ACE018E0BCF1640FB0
:103830006FD0BCF1690F11D16BE0BCF1730F32D0C6
:1038400006DCBCF16F0F71D0BCF1700F06D19BE0AC
:10385000BCF1750F6BD0BCF1780F69D06046DDE923
:103860000F129047761C52E1C4F30250022806D092
:1038700003280AD0042801CF0AD0066047E101CF0F
:103880004FEAE671C0E9006141E101CF06803EE107
:1038900006703CE101CF8DF8000000208DF801009A
:1038A000EB46012003E057F804BB4FF0FF306107FF
:1038B0004FF0000102D40DE008F1010188464945AE
:1038C0000FDA8045F8DB1BF808100029F4D108E076
:1038D00008F1010188468142FADB1BF80810002933
:1038E000F6D1DDE90F23AAEB08008146214600F05E
:1038F00040F9304400EB080604E0DDE90F121BF844
:10390000010B9047B8F10108F7D221464846F9E08B
:1039100002E10A20C4F302524FF0000B0890022A81
:1039200007D001CFC117032A09D00AE035E022E011
:1039300023E0FF1D27F00707F7E8020105E000B2CA
:10394000C117042A01D140B2C117002906DA0023A9
:10395000D0EB030063EB01012D2202E0220504D528
:103960002B228DF82420012203E0E20701D020223F
:10397000F7E7904653E00A2110E010204FF0000BCB
:1039800008900EE0102109E010214FF0000B44F0E8
:1039900004044FF00809089103E008214FF0000BE0
:1039A0000891C4F30252022A04D001CF0021032A55
:1039B00006D007E0FF1D27F00707F7E8020105E042
:1039C00080B20021042A01D1C0B200214FF00008CA
:1039D000220724D5BCF1700F2AD0089B83F0100376
:1039E00053EA0B0309D150EA010206D030228DF8C8
:1039F00024208DF825C002229046089B83F00803FE
:103A000053EA0B030BD150EA010201D1620706D53C
:103A100030228DF824204FF00108A9F1010941A2BC
:103A2000BCF1580F00D044A20B9208AA0A920FE0F2
:103A300040228DF824200122DEE75B46089AFCF73D
:103A4000F2FB0B9B9B5C0A9AA2F101020A92137093
:103A500050EA0102F1D10A98ADEB000000F1200B11
:103A6000600702D524F4803401E04FF00109002002
:103A700049465A46D94501DDA1EB020000EB0B0196
:103A800041440890AAEB01000B90E00306D4DDE965
:103A90000F2321460B9800F06CF806444FF0000904
:103AA0000DF1240A07E0DDE90F121AF8090090472A
:103AB000761C09F10109C145F5DBE0030CD5DDE910
:103AC0000F2321460B9800F054F8064404E0DDE98A
:103AD0000F1230209047761C0899481E0890002944
:103AE000F5DC08E00A980A990078491C0A91DDE99A
:103AF0000F129047761CBBF10001ABF1010BF1DC1A
:103B00000B982146DDE90F2300F020F806446D1CD8
:103B1000287800287FF40DAE11B03046BDE8F08F54
:103B200009280100303132333435363738394142D3
:103B300043444546000000003031323334353637D7
:103B40003839616263646566000000002DE9F04168
:103B50000446002517461E46880405D406E039466B
:103B60002020B04705F10105641EF8D52846BDE8C0
:103B7000F0812DE9F04104460025302790461E468D
:103B8000C80300D42027880405D506E041463846FE
:103B9000B04705F10105641EF8D52846BDE8F0815F
:103BA0000A68531C0B601070704700003EB501217D
:103BB0000220FEF715FF4FF6FF70ADF80400472016
:103BC000ADF800000020074CADF80600ADF802008B
:103BD00069462046FFF714FC01212046FFF7F2FB5F
:103BE0003EBD00000004004070B504464FF47A75F5
:103BF00004E0284600F006F8641EA4B2002CF8D1B8
:103C000070BD00004FF080410022A1F8242400BFC5
:103C1000B1F824248242FBD37047000070B5164BE4
:103C20004FF40044DC6040F22620FFF7EBFF9C607D
:103C30003220FFF7E7FF1868A3F6080300044FF0EF
:103C4000FF3501D50DA013E05FF00004D3F808089C
:103C5000000405D43220FFF7D5FF641CFF2CF5DBF0
:103C60003220FFF7CFFFFF2C01DA002070BD0BA040
:103C7000FFF720FD284670BD080801404552524F0D
:103C8000523A2073656E736F72206E6F742070727B
:103C90006573656E74210D0A000000004552524F95
:103CA000523A2073656E736F7220696E6974206674
:103CB00061696C6564210D0A0000000010B50A4BB3
:103CC0004FF40044DC604FF00A00FFF79BFF9C605C
:103CD0000A20FFF797FF1868C0F3C0333C20FFF7B6
:103CE00091FF184610BD00000808014030B50025BE
:103CF0002C466408FFF7E2FF08B144F080046D1C15
:103D0000EDB2082DF5D3204630BD000030B50D4C86
:103D10004FF400430546C4F814380A20FFF772FF39
:103D2000E80702D0C4F8103801E0C4F814383C2089
:103D3000FFF768FFC4F81038BDE830400A20FFF7ED
:103D400061BF00000000014030B505460024284650
:103D5000FFF7DCFF641C6D08E4B2082CF7D330BD1C
:103D600010B50446FCF766FC0028FBD12046FCF7A2
:103D70005BFC204610BD0000FCF700FD03A0FFF730
:103D800099FCFCF7DDFCFDF705FEFEE76273702091
:103D9000696E6974206F6B0D0A00000044435F5226
:103DA000585F46696E64436D640044435F54585FD6
:103DB00053657453637265656E0044435F54585F86
:103DC00047657453637265656E0044435F54585F82
:103DD00053657449636F6E0044435F54585F536585
:103DE00074427574746F6E0044435F54585F53653A
:103DF0007456697369626C650044435F54585F533D
:103E00006574546578740044435F54585F506C6126
:103E1000794769660044435F54585F53746F704735
:103E200069660044435F54585F4D756C746953650F
:103E3000740044435F54585F5772697465466C61FF
:103E400073680044435F54585F52656164466C6117
:103E500073680048535F4D61696E0048535F436F5C
:103E60006E6669726D53637265656E0048535F5389
:103E7000617665436F6E6669670048535F4C6F619A
:103E800064436F6E6669670048535F53617665529D
:103E9000756E74696D650048535F4C6F616452754F
:103EA0006E74696D650048535F5361766553746540
:103EB00070537461746554696D650048535F4C6F4D
:103EC000616453746570537461746554696D650001
:103ED00048535F506167655F300048535F506167CA
:103EE000655F3100537465705354420053746570BC
:103EF00059534200537465705153460053746570B2
:103F000050575200537465705A5A46005374657086
:103F100045525200537465704954560044657653B7
:103F2000746174650048535F506167655F32004893
:103F3000535F506167655F330048535F5061676549
:103F40005F340048535F506167655F350000404053
:103F5000404040404040404141414141404040405C
:103F600040404040404040404040404040400502CA
:103F700002020202020202020202020202022020E5
:103F80002020202020202020020202020202029093
:103F900090909090901010101010101010101010A1
:103FA00010101010101010101002020202020288ED
:103FB0008888888888080808080808080808080801
:103FC0000808080808080808080202020240000061
:103FD0004E3F0008F43F0008000000207C00000075
:103FE00004370008704000087C0000200C09000025
:103FF0001437000802040608000000000102030450
:104000000102030406070809000000000000000088
:1040100000000000000000000000000000000000A0
:104020000000000000000000000000000000000090
:104030000000000000000000000000000000000080
:104040000000000000000000000000000000000070
:104050000000000000000000000000000000000060
:10406000FFFFFFFFFFFFFFFF000000000000000058
:0400000508000131BD
:00000001FF
